:100000000C945D000C9485000C9485000C94850084
:100010000C9485000C9485000C9485000C9485004C
:100020000C9485000C9485000C9485000C94D104EC
:100030000C9485000C9485000C9485000C9485002C
:100040000C942F040C9485000C949F040C94790458
:100050000C9485000C9485000C9485000C9485000C
:100060000C9485000C94850000000008000201003B
:100070000003040700000000000000000000000072
:10008000250028002B0000000000240027002A0083
:10009000040404040404040402020202020203032E
:1000A0000303030301020408102040800102040836
:1000B00010200102040810208D0511241FBECFEF6F
:1000C000D8E0DEBFCDBF11E0A0E0B1E0E6EDF0E1A9
:1000D00002C005900D92A436B107D9F722E0A4E63C
:1000E000B1E001C01D92AB34B207E1F710E0CDE5FD
:1000F000D0E004C02197FE010E946308CC35D107EF
:10010000C9F70E9415060C9469080C94000090E051
:10011000FC01EC55FF4F249180579F4FFC018491C7
:10012000882399F090E0880F991FFC01EA57FF4F50
:10013000A591B491FC01E458FF4F859194918FB73C
:10014000F894EC91E22BEC938FBF0895E091480274
:10015000EC3088F54091490228E830E0241B310951
:1001600047FD3395220F331F220F331F821793074A
:1001700084F040914A0228E532E0241B310947FD12
:100180003395220F331F220F331F821793070CF46E
:100190009C0122503109220F331F4FB7F8948E2F44
:1001A00090E0FC01EE0FFF1FE80FF91FE55FFD4F28
:1001B000328321834FBF089590E0FC01E859FF4F3F
:1001C0002491FC01EC55FF4F3491FC01E057FF4FA7
:1001D000E491EE23C9F0222339F0233001F1A8F491
:1001E000213019F1223029F1F0E0EE0FFF1FE45821
:1001F000FF4FA591B4918FB7F894EC91611126C08F
:1002000030953E233C938FBF08952730A9F02830C6
:10021000C9F0243049F7809180008F7D03C0809120
:1002200080008F7780938000DFCF84B58F7784BD87
:10023000DBCF84B58F7DFBCF8091B0008F7780932B
:10024000B000D2CF8091B0008F7DF9CF3E2BDACFB6
:100250003FB7F89480916A0190916B01A0916C0175
:10026000B0916D0126B5A89B05C02F3F19F00196EE
:10027000A11DB11D3FBFBA2FA92F982F8827BC0100
:10028000CD01620F711D811D911D42E0660F771F28
:10029000881F991F4A95D1F708958F929F92AF9228
:1002A000BF92CF92DF92EF92FF924B015C010E94CE
:1002B00028016B017C010E9428016C197D098E09BF
:1002C0009F09683E734081059105A8F321E0821AD9
:1002D0009108A108B10888EEC80E83E0D81EE11C81
:1002E000F11C81149104A104B10429F7FF90EF904F
:1002F000DF90CF90BF90AF909F908F900895AF9276
:10030000BF92CF92DF92EF92FF920F931F93CF9302
:10031000DF936C017B018B01040F151FEB015E0164
:10032000AE18BF08C017D10759F06991D601ED91F9
:10033000FC910190F081E02DC6010995892B79F798
:10034000C501DF91CF911F910F91FF90EF90DF904A
:10035000CF90BF90AF900895FC01538D448D252F11
:1003600030E0842F90E0821B930B541710F0CF964F
:10037000089501970895FC01918D828D981761F081
:10038000A28DAE0FBF2FB11D5D968C91928D9F5F98
:100390009F73928F90E008958FEF9FEF0895FC0177
:1003A000918D828D981731F0828DE80FF11D858D2A
:1003B00090E008958FEF9FEF0895FC01918D228DBD
:1003C000892F90E0805C9F4F821B91098F73992742
:1003D00008958EE691E00E94DD0121E0892B09F469
:1003E00020E0822F089580E090E0892B29F00E9480
:1003F000E90181110C9400000895FC01A48DA80F5F
:10040000B92FB11DA35ABF4F2C91848D90E0019656
:100410008F739927848FA689B7892C93A089B18976
:100420008C91837080648C93938D848D981306C017
:100430000288F389E02D80818F7D80830895EF927B
:10044000FF920F931F93CF93DF93EC0181E0888F8E
:100450009B8D8C8D98131AC0E889F989808185FF5E
:1004600015C09FB7F894EE89FF896083E889F98900
:1004700080818370806480839FBF81E090E0DF9102
:10048000CF911F910F91FF90EF900895F62E0B8D55
:1004900010E00F5F1F4F0F731127E02E8C8D8E1110
:1004A0000CC00FB607FCFACFE889F989808185FF77
:1004B000F5CFCE010E94FD01F1CFEB8DEC0FFD2FAA
:1004C000F11DE35AFF4FF0829FB7F8940B8FEA8932
:1004D000FB8980818062CFCFCF93DF93EC01888D41
:1004E0008823B9F0AA89BB89E889F9898C9185FDAF
:1004F00003C0808186FD0DC00FB607FCF7CF8C913D
:1005000085FFF2CF808185FFEDCFCE010E94FD01F6
:10051000E9CFDF91CF910895089590E080E00895AC
:10052000CF93DF93EC0160E08E810E94DC0061E0FC
:100530008E810E94DC0060E08E810E94DC008BE8EE
:1005400091E00197F1F7DF91CF910895CF92DF927B
:10055000EF92FF920F931F93CF93DF936C017C0177
:1005600087E0E80EF11CD0E0C0E0062F10E0B801F3
:100570000C2E02C0759567950A94E2F76170F70139
:1005800081917F010E94DC002196C430D10579F76A
:10059000C601DF91CF911F910F91FF90EF90DF90F7
:1005A000CF900C949002CF92DF92EF92FF920F9334
:1005B0001F93CF93DF93EC01F62E642F8C810E9462
:1005C000DC008D818F3F19F060E00E94DC000F2D70
:1005D00010E08F8584FF25C06E0187E0C80ED11C16
:1005E000F12CE12CB8010E2C02C0759567950A9488
:1005F000E2F76170F60181916F010E94DC00FFEF6C
:10060000EF1AFF0A88E0E816F10461F7CE01DF91E6
:10061000CF911F910F91FF90EF90DF90CF900C94AE
:100620009002B80184E0759567958A95E1F7CE014F
:100630000E94A6026F2DCE01DF91CF911F910F91E5
:10064000FF90EF90DF90CF900C94A60240E0682FCF
:1006500080E392E00C94D302CF93DF93823029F4AD
:1006600090913F02986090933F02809343021092D2
:10067000440280E48093450280E18093460280E555
:1006800080934702809134020E9487008091350256
:100690008F3F11F00E948700809136020E948700F0
:1006A000C0E3D2E09E012053324080913F0284FD9E
:1006B0000AC084E090E02196281739073CF48E8127
:1006C0000E948700EFCF88E090E0F5CF8BE39DE0BC
:1006D0000197F1F760E0809134020E94DC0060E055
:1006E000809136020E94DC00809135028F3F19F024
:1006F00060E00E94DC0080913F0284FD39C063E02D
:1007000080E392E00E94A602CBE4D6E4CE010197FA
:10071000F1F763E080E392E00E94A6022197F1F7EF
:1007200063E080E392E00E94A60283E592E00197F5
:10073000F1F762E080E392E00E94A60280913F021E
:1007400080620E94260384E0809340028CE00E9435
:10075000260381E00E9426038BE39FE10197F1F7D6
:1007600082E08093410286E0DF91CF910C942603D2
:1007700080620E9426038BE496E40197F1F7809152
:100780003F0280620E94260383E592E00197F1F721
:1007900080913F0280620E942603D0CF41E00E94F8
:1007A000D30281E090E00895FB0101900020E9F779
:1007B0003197AF01461B570BDC01ED91FC91028094
:1007C000F381E02D09948F929F92AF92BF92EF92A6
:1007D000FF920F931F93CF93DF93CDB7DEB7A1970F
:1007E0000FB6F894DEBF0FBECDBF7C01FA01CB017E
:1007F00019A2223008F42AE08E010F5D1F4F822ECD
:10080000912CB12CA12CBF01A50194010E942608B6
:10081000F901CA016A300CF5605DD8016E938D0153
:10082000232B242B252B79F790E080E0109721F0E3
:10083000BD01C7010E94D403A1960FB6F894DEBF94
:100840000FBECDBFDF91CF911F910F91FF90EF9021
:10085000BF90AF909F908F900895695CDECF1F92FC
:100860000F920FB60F9211242F933F938F939F9364
:10087000AF93BF938091660190916701A091680149
:10088000B09169013091650123E0230F2D3758F5B0
:100890000196A11DB11D209365018093660190937F
:1008A0006701A0936801B093690180916A019091FA
:1008B0006B01A0916C01B0916D010196A11DB11D5C
:1008C00080936A0190936B01A0936C01B0936D01CA
:1008D000BF91AF919F918F913F912F910F900FBE3C
:1008E0000F901F90189526E8230F0296A11DB11DA9
:1008F000D2CF1F920F920FB60F9211242F933F93D6
:100900004F935F936F937F938F939F93AF93BF9317
:10091000EF93FF938EE691E00E94FD01FF91EF912E
:10092000BF91AF919F918F917F916F915F914F9107
:100930003F912F910F900FBE0F901F9018951F920F
:100940000F920FB60F9211242F938F939F93EF93D3
:10095000FF93E0917E01F0917F018081E09184011D
:10096000F091850182FD1BC09081809187018F5F8E
:100970008F7320918801821741F0E0918701F0E0A8
:10098000E259FE4F958F80938701FF91EF919F91E0
:100990008F912F910F900FBE0F901F90189580810F
:1009A000F4CF1F920F920FB60F9211242F933F9303
:1009B0004F935F936F937F938F939F93AF93BF9367
:1009C000CF93DF93EF93FF9380916401C0912F0247
:1009D000D0E087FF24C0109285001092840080919F
:1009E00064018F5F8093640180916401082E000C84
:1009F000990B8C179D0724F4809164018C30C4F10D
:100A00008091840090918500049680349C4908F47C
:100A10007AC08091840090918500049676C0809180
:100A20006401082E000C990B8C179D07C4F6E09109
:100A300064018E2FEE0F990BFC01EE0FFF1FE80FE4
:100A4000F91FE55FFD4F808186FFC9CFE09164010A
:100A50008E2FEE0F990BFC01EE0FFF1FE80FF91F11
:100A6000E55FFD4F808160E08F730E94DC00B7CFAF
:100A70002091840030918500E09164018E2FEE0F6B
:100A8000990BFC01EE0FFF1FE80FF91FE55FFD4F0B
:100A900081819281820F931F9093890080938800B7
:100AA000E09164018E2FEE0F990BFC01EE0FFF1FFA
:100AB000E80FF91FE55FFD4F808186FF11C0E091CF
:100AC00064018E2FEE0F990BFC01EE0FFF1FE80F54
:100AD000F91FE55FFD4F808161E08F730E94DC00AC
:100AE000FF91EF91DF91CF91BF91AF919F918F9146
:100AF0007F916F915F914F913F912F910F900FBE1A
:100B00000F901F90189580E49CE990938900809342
:100B100088008FEF80936401E3CF109271011092EF
:100B2000700188EE93E0A0E0B0E0809372019093B2
:100B30007301A0937401B093750184E091E09093E8
:100B40006F0180936E0185EC90E090937B01809320
:100B50007A0184EC90E090937D0180937C0180EC9D
:100B600090E090937F0180937E0181EC90E09093E0
:100B700081018093800182EC90E0909383018093C7
:100B8000820186EC90E0909385018093840110921D
:100B90008701109288011092890110928A01809138
:100BA0002F028C30F0F591E0980F90932F028093F4
:100BB000480290E0FC01EE0FFF1FE80FF91FE55F10
:100BC000FD4F88EB9BE09283818310923302109259
:100BD000320286E191E090933102809330028CE002
:100BE000809334028FEF809335028BE0809336023E
:100BF00085E08093370284E08093380283E080931D
:100C0000390282E080933A0210923B0210923C0239
:100C100010923D0210923E0210923F0281E00C942D
:100C20002C038FEF80934802D0CF789484B58260F4
:100C300084BD84B5816084BD85B5826085BD85B580
:100C4000816085BD80916E00816080936E001092FE
:100C50008100809181008260809381008091810079
:100C6000816080938100809180008160809380000A
:100C70008091B10084608093B1008091B000816068
:100C80008093B00080917A00846080937A00809194
:100C90007A00826080937A0080917A0081608093EC
:100CA0007A0080917A00806880937A001092C10067
:100CB000E0917E01F0917F0182E08083E0917A01F2
:100CC000F0917B011082E0917C01F0917D018FEC2D
:100CD000808310928601E0918201F091830186E089
:100CE0008083E0918001F091810180818061808327
:100CF000E0918001F0918101808188608083E091A2
:100D00008001F0918101808180688083E091800181
:100D1000F091810180818F7D808387E00E94870030
:100D200088E00E948700809148028C3008F050C013
:100D300089E00E94870080914802282F30E0F90165
:100D4000EE0FFF1FE20FF31FE55FFD4F9081907CD8
:100D5000996090831092490210924A022CE0622F0F
:100D60000E945708829FB001112430E020E0AB01BF
:100D7000420F531FFA01EE0FFF1FE40FF51FE55F4F
:100D8000FD4F908196FD16C02F5F3F4F2C303105EF
:100D900071F781110FC01092800082E08093810072
:100DA0001092850010928400B19A80916F00826049
:100DB00080936F00E09148028E2F90E0FC01EE0FCF
:100DC000FF1FE80FF91FE55FFD4F8081806480837E
:100DD00082E00E942C036EE171E080E392E00E94C9
:100DE000D40360ED77E080E090E00E944D015BE38A
:100DF000252E5FE1352EC8E8D0E068E5A62E62E03A
:100E0000B62E74EB472E512C612C712CE0E08E2E07
:100E1000E0E09E2E20E420937C0080917A008064A4
:100E200080937A0080917A0086FDFCCF0091780053
:100E3000109179006FE271E08EE691E00E94D40398
:100E40006801012E000CEE08FF082AE0B701A60198
:100E5000F7FE0DC06DE28EE691E00E941F0244276E
:100E60005527BA014C195D096E097F092AE08EE603
:100E700091E00E94E3036BE371E08EE691E00E9453
:100E8000D40381E00E942603C1010197F1F7E1E05C
:100E9000809143028111E0E0E195F0E0E05DFD4FDB
:100EA000848980680E9426036EE371E080E392E00B
:100EB0000E94D4032AE0B701A601F7FE0EC041E06C
:100EC0006DE280E392E00E94D30244275527BA01E5
:100ED0004C195D096E097F092AE080E392E00E94C7
:100EE000E303093512400CF460C060E087E00E9423
:100EF000DC0061E088E00E94DC00809149026E0124
:100F0000C81AD10887FDD394CC0CDD1CCC0CDD1C99
:100F10000D2C000CEE08FF0880914A029501281B59
:100F2000310987FD3395220F331F220F331F032E04
:100F3000000C440B550B2C193D094E095F09AAE51D
:100F4000B0E00E941B08A30192010E94FC07DA0195
:100F5000C9018C0D9D1DAE1DBF1D0E94A600E09114
:100F60004302E23000F5E150F0E0E05DFD4F84899E
:100F700080680E94260366E471E080E392E00E94AC
:100F8000D40364EF71E080E090E00E944D01811491
:100F9000910409F43FCF0E94E901882309F43ACF74
:100FA0000E94000037CFE1E0DFCF61E087E00E94E0
:100FB000DC0060E088E00E94DC00809149029E0134
:100FC000281B310987FD3395C901880F991F880FA8
:100FD000991F0E94A600E0914302E23058F4E150CC
:100FE000F0E0E05DFD4F848980680E94260364E59F
:100FF00071E0C3CFE1E0F4CF052E97FB1EF400941F
:101000000E94130857FD07D00E94260807FC03D052
:101010004EF40C94130850954095309521953F4F10
:101020004F4F5F4F089590958095709561957F4FD4
:101030008F4F9F4F08950E944808A59F900DB49F21
:10104000900DA49F800D911D11240895A1E21A2EE8
:10105000AA1BBB1BFD010DC0AA1FBB1FEE1FFF1F5C
:10106000A217B307E407F50720F0A21BB30BE40BAC
:10107000F50B661F771F881F991F1A9469F76095F3
:101080007095809590959B01AC01BD01CF010895AD
:10109000A29FB001B39FC001A39F700D811D1124B9
:1010A000911DB29F700D811D1124911D0895991BF2
:1010B00079E004C0991F961708F0961B881F7A954F
:1010C000C9F780950895EE0FFF1F0590F491E02D6C
:0610D0000994F894FFCF23
:1010D600000000001F027F01AC016C02DD01BB01B4
:1010E600CF0100000000CE037F018D028C02544523
:1010F600412050524F2053595320496E6974004C79
:1011060044522056616C75653A20000D0A004C4524
:1011160056454C3A20005374617475733A20416CFD
:10112600657274005374617475733A204E6F726DF4
:04113600616C0000E8
:00000001FF
